:020000040800F2
:100000000050002021020008270200082B020008EF
:100010009D020008A1020008E9020008000000009B
:100020000000000000000000000000003103000894
:10003000350300080000000039030008190C00080F
:100040004D0300084D0300084D0300084D03000850
:100050004D0300084D0300086507000885070008E8
:10006000A5070008C50700084D0300084D03000858
:100070004D0300084D0300084D0300084D03000820
:100080004D0300084D030008510700084D03000808
:100090004D0300084D0300084D0300084D03000800
:1000A0004D0300084D0300084D0300084D030008F0
:1000B000AD0C0008C90C0008E90C00084D0300084D
:1000C0004D0300084D0300084D0300084D030008D0
:1000D0004D030008850D0008BD0D0008FD0D00084A
:1000E0004D0300084D0300084D0300080000000008
:1000F0000000000000000000000000000000000000
:1001000000000000000000005FF808F100B583B0B7
:1001100000F0ACF9304B314A1360314A1360314B77
:10012000314A03E052F8041B43F8041B2F498B4269
:10013000F8D32A4B1A682E4B9A4200D0FEE7284B80
:100140001A682C4B9A42F9D1234B2B4A13602B4A45
:1001500013602B4B02E0002243F8042B294A934200
:10016000F9D3254B1B6813B9244B1B6803B1FEE779
:1001700000F088F9694601A800F022F9224C234BCF
:10018000E41AA410002504E0204B53F825309847CA
:100190000135AC42F8DC1E4C1E4BE41AA4100025BD
:1001A00004E01C4B53F8253098470135AC42F8DC8D
:1001B0000099019800F088FE0546174C174BE41A89
:1001C000A41004E0013C154B53F824309847002C50
:1001D000F8DC284600F0D0F8BABADECA00000020E9
:1001E00084000020000000201C220008880000205D
:1001F000785634123254769888000020D8010020B6
:1002000088000020DC010020780300087803000843
:1002100078030008780300087803000878030008D2
:1002200008B5FFF773FF00BEFEE71EF0040F0CBF1A
:10023000EFF30880EFF309807146414A10472DE93A
:10024000F04182B004460D46124B5F6BD3F8388004
:100250009E6A1B6B13F0020F03D00E4BDB6A002B60
:100260000BDB0D4800F0B4F8009543463A463146A2
:10027000204600F00BF900BEFEE74BF6AB6100F044
:100280007FF90028EDD0034B4FF00042DA6202B054
:10029000BDE8F08100ED00E05C21000800BEFEE753
:1002A0001EF0040F0CBFEFF30880EFF309807146D6
:1002B000244A10472DE9F04182B004460D46084B10
:1002C0005F6BD3F838809E6A064800F081F800958D
:1002D00043463A463146204600F0D8F800BEFEE7D5
:1002E00000ED00E06C2100081EF0040F0CBFEFF3DE
:1002F0000880EFF309807146134A10472DE9F04159
:1003000082B004460D46084B5F6BD3F838809E6A76
:10031000064800F05DF8009543463A4631462046CF
:1003200000F0B4F800BEFEE700ED00E07821000820
:1003300000BEFEE700BEFEE700BEFEE7704700001D
:100340003F020008B5020008FD02000800BEFEE7FB
:100350001C22000800000020880000201C22000849
:10036000000000000000000088000020DC010020E8
:08037000000000000000000085
:10037800FEE7000008B503460C4A12685AB10B4A5A
:100388001068033323F003030344094A934206D851
:10039800064A136008BD054A06491160EFE701F0F7
:1003A800F1F90C2303604FF0FF30F3E78C000020D5
:1003B800004C0020DC01002001230360014B0B608E
:1003C800704700BF040000200FB400B583B004AB31
:1003D80053F8042B01938021074801F005FA0028FF
:1003E80004DC03B05DF804EB04B070470146024832
:1003F80000F034F8F5E700BF940000202DE9F04341
:1004080085B004460F46435633BB0425284621468B
:10041800ABBE0446384605B0BDE8F08314F9010BBD
:1004280004AA1A4402F8100C0133AB42F6D304AA0A
:100438001344002203F8102C4FF00408E946404604
:100448004946ABBE8046761B002EE3D03546102EBB
:1004580028BF10250023E8E70E46F5E708B5FFF7A3
:10046800CDFF08BD08B500F0FDF8024A024B9A60BE
:1004780008BD00BF0000000800ED00E008B500F06E
:1004880019F908BDF8B504460D4617461E46274813
:10049800FFF79AFF21682648FFF796FF616825480D
:1004A800FFF792FFA1682448FFF78EFFE168234811
:1004B800FFF78AFF21692248FFF786FF6169214813
:1004C800FFF782FFA1692048FFF77EFFE1691F4817
:1004D800FFF77AFF1E48FFF777FF29461D48FFF709
:1004E80073FF1D4CE16A1D48FFF76EFF216B1C4826
:1004F800FFF76AFFE16B1B48FFF766FF15F0800FF7
:100508000AD115F4004F0CD11748FFF75DFF069983
:100518001648FFF759FFF8BD39461548FFF754FF4D
:10052800EFE731461348FFF74FFFEDE7402000089B
:100538005020000860200008702000088020000873
:1005480090200008A0200008B0200008C020000863
:10055800D0200008DC20000800ED00E0EC200008B6
:10056800FC2000080C2100083C2100084421000858
:100578001C2100082C21000883691A888A4201D0AE
:10058800002070470268033A012A01D90020704709
:10059800023383610120704782B0002301930093E6
:1005A8002C4A136843F4803313602A4B1B6803F406
:1005B80000330093019B01330193009B1BB9019BFE
:1005C800B3F5A06FF1D1234B1B6813F4003F06D09D
:1005D80001230093009B012B04D002B07047002335
:1005E8000093F7E71C4B1A6842F010021A601A6869
:1005F80022F003021A601A6842F002021A60A3F598
:1006080080535A685A605A685A605A6842F480623D
:100618005A605A6822F47C125A605A6842F4E81206
:100628005A601A6842F080721A600A4B1B6813F00D
:10063800007FFAD0074B5A6822F003025A605A68C2
:1006480042F002025A60034B5B6803F00C03082B6C
:10065800F9D1C2E7001002400020024008B5FFF7B8
:100668009BFF08BD08B5104B1A6842F001021A60DA
:1006780059680E4A0A405A601A6822F0847222F4B5
:1006880080321A601A6822F480221A605A6822F4AA
:10069800FE025A604FF41F029A60FFF7DFFF044B17
:1006A8004FF000629A6008BD001002400000FFF899
:1006B80000ED00E01F4B5B6803F00C03042B15D022
:1006C800082B17D01BB11C4B1C4A1A6002E01A4BAE
:1006D8001A4A1A60174B5B68C3F30313184AD35CB2
:1006E800DAB215490B68D3400B607047124B134AB6
:1006F8001A60EFE70F4A53685268C3F38343023323
:1007080012F4803F05D10F4A02FB03F30A4A136033
:10071800E0E7084A526812F4003F05D0094A02FB94
:1007280003F3054A1360D5E7044A02FB03F3024AC0
:100738001360CFE7001002401C00002000127A006E
:100748000C00002000093D00024BDB6C9BB2024A02
:1007580013807047002401401401002008B5054BA0
:100768001B6803B19847044A536943F00103536176
:1007780008BD00BF180100200004014008B5054B62
:100788005B6803B19847044A536943F00203536115
:1007980008BD00BF180100200004014008B5054B42
:1007A8009B6803B19847044A536943F004035361B3
:1007B80008BD00BF180100200004014008B5054B22
:1007C800DB682BB19847044A536943F00803536127
:1007D80008BD00BF1801002000040140F0B4012842
:1007E80024D0022842D008B1F0BC704707290BD8A2
:1007F80088000F2383402E4C216821EA030302FA64
:1008080000F119432160EFE70F29EDD8A1F108079E
:10081800FFB2BE000F2303FA06F12648036823EA55
:10082800010302FA06F61E430660DDE707290BD826
:100838008B000F209840204C216821EA000002FA22
:1008480003F101432160CFE70F29CDD8A1F10807B3
:10085800FFB2BD000F2303FA05F11848036823EA25
:10086800010302FA05F51D430560BDE707290CD809
:1008780089000F2303FA01F0114C236823EA0003CF
:1008880002FA01F119432160AEE70F29ACD8A1F1B2
:100898000807FFB2BC000F2303FA04F109480368F4
:1008A80023EA010302FA04F1194301609CE700BF3F
:1008B8000008014004080140000C0140040C0140FC
:1008C8000010014004100140012818D002282BD044
:1008D80000B17047012A0AD0002AFAD1012303FA8D
:1008E80001F11C4A136823EA0103136070470123CE
:1008F80003FA01F1174A13680B4313607047012A82
:100908000AD0002AE5D1012303FA01F1124A13683B
:1009180023EA010313607047012303FA01F10E4A29
:1009280013680B4313607047012A0AD0002AD0D1FC
:10093800012303FA01F1094A136823EA010313604A
:10094800C7E7012303FA01F1044A13680B43136054
:10095800704700BF0C0801400C0C01400C1001400E
:1009680001280AD002280ED008B100207047094B90
:100978001868C84000F001007047074B1868C84065
:1009880000F001007047054B1868C84000F00100EE
:10099800704700BF08080140080C014008100140DA
:1009A80038B504460D460222FFF718FF29462046AF
:1009B800FFF7D6FF012805D0012229462046FFF778
:1009C80083FF38BD002229462046FFF77DFFF8E760
:1009D8001F2805D8012303FA00F0064B186070475A
:1009E8003B2806D82038C0B2012303FA00F0024B96
:1009F8001860704700E100E004E100E04FF4007384
:100A08008362036823F0600303600368036003687C
:100A180023F0100303600139032913D8DFE801F03C
:100A2800021B2C3D836923F070038361836943F0C3
:100A380060038361836943F008038361036A43F0B9
:100A480001030362036843F080030360436943F0D2
:100A5800010343617047836923F4E0438361836939
:100A680043F4C0438361836943F400638361036A89
:100A780043F010030362E5E7C36923F07003C36121
:100A8800C36943F06003C361C36943F00803C361EA
:100A9800036A43F480730362D4E7C36923F4E04331
:100AA800C361C36943F4C043C361C36943F40063CA
:100AB800C361036A43F480530362C3E70000000084
:100AC800F8B504460D461646184600F0AFFB00225E
:100AD800354B00F04FFD32A3D3E9002300F020FC92
:100AE80000F030FEE062691E032916D8DFE801F045
:100AF800021A2E42304600F0A9FB00222B4B00F0D0
:100B080039FD06460F46E06A00F090FB32463B4648
:100B180000F006FC00F016FE6063236843F0010352
:100B28002360F8BD304600F091FB00221F4B00F017
:100B380021FD06460F46E06A00F078FB32463B4648
:100B480000F0EEFB00F0FEFDA063E6E7304600F0A3
:100B58007DFB0022154B00F00DFD06460F46E06AAE
:100B680000F064FB32463B4600F0DAFB00F0EAFD99
:100B7800E063D2E7304600F069FB00220B4B00F03F
:100B8800F9FC06460F46E06A00F050FB32463B4649
:100B980000F0C6FB00F0D6FD2064BEE7AFF300808E
:100BA800000000008084CE4000408F400000594083
:100BB800034B4FF480321A60043301221A607047E5
:100BC800001002401F2904D801280BD0022811D098
:100BD80000B17047012303FA01F10A4A13680B4375
:100BE80013607047012303FA01F1074A13680B43A6
:100BF80013607047012303FA01F1044A13680B4399
:100C08001360E6E7141002401C100240181002405E
:100C180008B50B4B1B785BB90A4B1A6822F0010226
:100C28001A601A6822F002021A6000225A609A605A
:100C3800054B1B6803B19847024B1B6808BD00BFF2
:100C48005801002010E000E05C010020064B1A6803
:100C580022F004021A601A6822F001021A601A6867
:100C680022F002021A60704710E000E00C4B19688D
:100C780041F0010119604FF47A7202FB00F25A60E8
:100C8800074B1B6813F4803FFAD0054B1A681A68A3
:100C980022F001021A6000225A609A60704700BF71
:100CA80010E000E008B5054B1B6803B198474FF00A
:100CB8008042136923F00103136108BD600100201D
:100CC80008B5054B1B6803B19847044A136923F01C
:100CD8000103136108BD00BF640100200004004047
:100CE80008B5054B1B6803B19847044A136923F0FC
:100CF8000103136108BD00BF68010020000800401F
:100D080040F24133836000230360C36843F4005317
:100D1800C360C36843F00403C360C36843F00803B7
:100D2800C360C36843F02003C360C36823F48063CF
:100D3800C360C36823F48053C360036923F48053FA
:100D48000361036923F4005303617047416003683A
:100D580013F0400FFBD0036823F040030360704793
:100D680070B506460D460024295D29B13046FFF7C7
:100D7800EDFF0134E4B2F7E770BD000008B5094B98
:100D88005B68DBB2402B06D007490A7807488354D2
:100D980001320A7008BD044B00221A70044B1B680C
:100DA8009847F7E7003801407001002074010020DF
:100DB8006C01002008B50B4B5B68DBB2402B06D0FA
:100DC80009490A780948835401320A7008BD064B5C
:100DD80019780022054842541A70054B1B68984739
:100DE800F4E700BF004400408C010020900100207F
:100DF8008801002008B50B4B5B68DBB2402B06D09E
:100E080009490A780948835401320A7008BD084B19
:100E18001A78002305498B54034A1370054B1B6845
:100E28009847F3E700480040A8010020AC010020E3
:100E38008C010020A4010020014B1860704700BFFE
:100E48006C010020014B1860704700BF880100202A
:100E580008B5074B1B78352B04D006490648FFF721
:100E68007FFF08BD0E210220FFF79AFDF5E700BFBE
:100E780074010020882100080044004008B50023C0
:100E88001A460B49C95C39B102EB820250000A18B4
:100E9800303A0133DBB2F4E70123D2B2042105482A
:100EA800FFF70EFE04490548FFF75AFF08BD00BFCB
:100EB8009001002000080040A821000800440040DC
:100EC80008B5FFF775FE02210846FFF77BFE0321F0
:100ED8000220FFF777FE04210220FFF773FE0021AE
:100EE8000220FFF76FFE02210120FFF76BFE0021B1
:100EF8000846FFF767FE09210220FFF763FE0E216F
:100F08000220FFF75FFE04220A210020FFF766FC9B
:100F18000B2209210020FFF761FC1C4D2846FFF732
:100F2800EFFE2520FFF754FD1948FFF785FF112133
:100F38000120FFF747FE042203210020FFF74EFCA3
:100F48000B2202210020FFF749FC124C2046FFF734
:100F5800D7FE2620FFF73CFD0F48FFF773FF0A2254
:100F680009210120FFF73AFC04210C48FFF746FD50
:100F7800FFF76CFE0A492846FFF7F2FE6420FFF7E8
:100F880075FE08492046FFF7EBFEFEE700380140F2
:100F9800590E000800440040850E00080008004073
:100FA800C8210008D821000881F0004102E000BFF4
:100FB80083F0004330B54FEA41044FEA430594EA11
:100FC800050F08BF90EA020F1FBF54EA000C55EA4C
:100FD800020C7FEA645C7FEA655C00F0E2804FEA1D
:100FE8005454D4EB5555B8BF6D420CDD2C4480EAFF
:100FF800020281EA030382EA000083EA010180EA2F
:10100800020281EA0303362D88BF30BD11F0004F7C
:101018004FEA01314FF4801C4CEA113102D04042B2
:1010280061EB410113F0004F4FEA03334CEA1333ED
:1010380002D0524263EB430394EA050F00F0A78005
:10104800A4F10104D5F1200E0DDB02FA0EFC22FA00
:1010580005F2801841F1000103FA0EF2801843FAF4
:1010680005F359410EE0A5F120050EF1200E012AE5
:1010780003FA0EFC28BF4CF0020C43FA05F3C01823
:1010880051EBE37101F0004507D54FF0000EDCF19C
:10109800000C7EEB00006EEB0101B1F5801F1BD345
:1010A800B1F5001F0CD349085FEA30004FEA3C0C49
:1010B80004F101044FEA445212F5800F80F09A803F
:1010C800BCF1004F08BF5FEA500C50F1000041EB43
:1010D800045141EA050130BD5FEA4C0C404141EB47
:1010E8000101013C28BFB1F5801FE9D291F0000F42
:1010F80004BF01460020B1FA81F308BF2033A3F1F1
:101108000B03B3F120020CDA0C3208DD02F1140CE7
:10111800C2F10C0201FA0CF021FA02F10CE002F122
:101128001402D8BFC2F1200C01FA02F120FA0CFC1B
:10113800DCBF41EA0C019040E41AA2BF01EB045164
:10114800294330BD6FEA04041F3C1CDA0C340EDC62
:1011580004F11404C4F1200220FA04F001FA02F3A5
:1011680040EA030021FA04F345EA030130BDC4F163
:101178000C04C4F1200220FA02F001FA04F340EA58
:101188000300294630BD21FA04F0294630BD94F009
:10119800000F83F4801306BF81F480110134013DF0
:1011A8004EE77FEA645C18BF7FEA655C29D094EA61
:1011B800050F08BF90EA020F05D054EA000C04BFDF
:1011C8001946104630BD91EA030F1EBF00210020CA
:1011D80030BD5FEA545C05D14000494128BF41F069
:1011E800004130BD14F580043CBF01F5801130BDCD
:1011F80001F0004545F0FE4141F470014FF0000058
:1012080030BD7FEA645C1ABF194610467FEA655C08
:101218001CBF0B46024650EA013406BF52EA0335AA
:1012280091EA030F41F4002130BD00BF90F0000F98
:1012380004BF0021704730B54FF4806404F13204D4
:101248004FF000054FF0000150E700BF90F0000F8D
:1012580004BF0021704730B54FF4806404F13204B4
:1012680010F0004548BF40424FF000013EE700BF84
:1012780042004FEAE2014FEA31014FEA02701FBF14
:1012880012F07F4393F07F4F81F06051704732F046
:101298007F4208BF704793F07F4F04BF41F400219D
:1012A800704730B54FF4607401F0004521F00041FB
:1012B8001CE700BF50EA010208BF704730B54FF085
:1012C80000050AE050EA010208BF704730B511F086
:1012D800004502D5404261EB41014FF4806404F1BE
:1012E80032045FEA915C3FF4D8AE4FF003025FEA44
:1012F800DC0C18BF03325FEADC0C18BF033202EBC8
:10130800DC02C2F1200300FA03FC20FA02F001FA21
:1013180003FE40EA0E0021FA02F11444BDE600BFC4
:1013280070B54FF0FF0C4CF4E06C1CEA11541DBF73
:101338001CEA135594EA0C0F95EA0C0F00F0DEF83E
:101348002C4481EA030621EA4C5123EA4C5350EA23
:10135800013518BF52EA033541F4801143F4801374
:1013680038D0A0FB02CE4FF00005E1FB02E506F005
:101378000042E0FB03E54FF00006E1FB03569CF05A
:10138800000F18BF4EF0010EA4F1FF04B6F5007F60
:1013980064F5407404D25FEA4E0E6D4146EB0606D2
:1013A80042EAC62141EA55514FEAC52040EA5E505B
:1013B8004FEACE2EB4F1FD0C88BFBCF5E06F1ED805
:1013C800BEF1004F08BF5FEA500E50F1000041EB3C
:1013D800045170BD06F0004646EA010140EA0200E9
:1013E80081EA0301B4EB5C04C2BFD4EB0C0541EA0B
:1013F800045170BD41F480114FF0000E013C00F320
:10140800AB8014F1360FDEBF002001F0004170BD43
:10141800C4F10004203C35DA0C341BDC04F114045C
:10142800C4F1200500FA05F320FA04F001FA05F2E8
:1014380040EA020001F0004221F0004110EBD370B5
:1014480021FA04F642EB06015EEA430E08BF20EAE1
:10145800D37070BDC4F10C04C4F1200500FA04F384
:1014680020FA05F001FA04F240EA020001F0004116
:1014780010EBD37041F100015EEA430E08BF20EA89
:10148800D37070BDC4F1200500FA05F24EEA020ED1
:1014980020FA04F301FA05F243EA020321FA04F000
:1014A80001F0004121FA04F220EA020000EBD370B7
:1014B8005EEA430E08BF20EAD37070BD94F0000FB7
:1014C8000FD101F00046400041EB010111F4801FEB
:1014D80008BF013CF7D041EA060195F0000F18BF9C
:1014E800704703F00046520043EB030313F4801FD8
:1014F80008BF013DF7D043EA0603704794EA0C0F92
:101508000CEA135518BF95EA0C0F0CD050EA4106A7
:1015180018BF52EA4306D1D181EA030101F0004124
:101528004FF0000070BD50EA410606BF104619464C
:1015380052EA430619D094EA0C0F02D150EA013658
:1015480013D195EA0C0F05D152EA03361CBF104699
:1015580019460AD181EA030101F0004141F0FE4138
:1015680041F470014FF0000070BD41F0FE4141F4BC
:10157800780170BD70B54FF0FF0C4CF4E06C1CEABC
:1015880011541DBF1CEA135594EA0C0F95EA0C0F71
:1015980000F0A7F8A4EB050481EA030E52EA03352C
:1015A8004FEA013100F088804FEA03334FF080554D
:1015B80045EA131343EA12634FEA022245EA11157A
:1015C80045EA10654FEA00260EF000419D4208BF2B
:1015D800964244F1FD0404F5407402D25B084FEAD8
:1015E8003202B61A65EB03055B084FEA32024FF484
:1015F80080104FF4002CB6EB020E75EB030E22BFE1
:10160800B61A754640EA0C005B084FEA3202B6EBA0
:10161800020E75EB030E22BFB61A754640EA5C004F
:101628005B084FEA3202B6EB020E75EB030E22BFDF
:10163800B61A754640EA9C005B084FEA3202B6EBE0
:10164800020E75EB030E22BFB61A754640EADC009F
:1016580055EA060E18D04FEA051545EA16754FEA01
:1016680006164FEAC30343EA52734FEAC2025FEA1F
:101678001C1CC0D111F4801F0BD141EA00014FF0AE
:1016880000004FF0004CB6E711F4801F04BF01437F
:101698000020B4F1FD0C88BFBCF5E06F3FF6AFAE9B
:1016A800B5EB030C04BFB6EB020C5FEA500C50F12B
:1016B800000041EB045170BD0EF0004E4EEA1131AE
:1016C80014EB5C04C2BFD4EB0C0541EA045170BDB5
:1016D80041F480114FF0000E013C90E645EA060EF9
:1016E8008DE60CEA135594EA0C0F08BF95EA0C0F27
:1016F8003FF43BAF94EA0C0F0AD150EA01347FF46F
:1017080034AF95EA0C0F7FF425AF104619462CE745
:1017180095EA0C0F06D152EA03353FF4FDAE1046A8
:10172800194622E750EA410618BF52EA43067FF4F9
:10173800C5AE50EA41047FF40DAF52EA43057FF489
:10174800EBAE12E74A0011D212F5001211D20DD5F4
:101758006FF47873B3EB62520ED44FEAC12343F0AF
:10176800004343EA505323FA02F070474FF0000059
:10177800704750EA013002D14FF0FF3070474FF008
:1017880000007047014B1868704700BF2000002018
:1017980030B5141E05469BB0184605DA8B234FF06A
:1017A800FF302B601BB030BD4FF40273ADF80C3026
:1017B8000CBF234604F1FF33029305934FF6FF73E2
:1017C800024600910491ADF80E3069461E9B2846EA
:1017D80000F074F8431CBCBF8B232B60002CE1D0B5
:1017E8000022009B1A70DDE707B5009313460A46EE
:1017F800014603480068FFF7CBFF03B05DF804FB20
:10180800200000202DE9F0478E6882469E420C4653
:1018180090461F4638D88A8912F4906F32D02568CE
:1018280009690133A5EB010965694B4405EB4505D9
:1018380005EBD5756D109D4238BF1D46530531D552
:10184800294600F053FB064650B90C234FF0FF30F1
:10185800CAF80030A38943F04003A381BDE8F087AC
:101868004A46216900F0CEFAA38923F4906343F035
:101878008003A38126614E4426603E466561A5EB40
:101888000905A560BE4200D93E4632464146206859
:1018980000F0C6FAA36822689B1B32440020A360AC
:1018A8002260DBE72A4600F07BFB06460028E1D1F0
:1018B8005046216900F0CEFAC7E700002DE9F04F45
:1018C80098468B8907461B060D4614469DB00ED5D3
:1018D8000B6963B9402100F009FB2860286120B931
:1018E8000C233B604FF0FF30D1E040236B610023B5
:1018F800099320238DF8293030234FF00109CDF8C2
:101908000C80DFF8A4818DF82A3023469A4613F814
:10191800012B0AB1252AF9D1BAEB040B0BD05B468F
:10192800224629463846FFF76DFF013000F0AA80AD
:10193800099A5A4409929AF80030002B00F0A280C4
:1019480000234FF0FF32CDE905230AF1010A049381
:1019580007938DF853301A935446052214F8011B47
:10196800514800F041FA049AD8B9D00644BF202360
:101978008DF85330110744BF2B238DF853309AF854
:1019880000302A2B15D0544600204FF00A0C079A35
:10199800214611F8013B303B092B4ED9B0B10792D3
:1019A80014E0A0EB080309FA03F31343A2460493D7
:1019B800D2E7039B191D1B680391002BBBBF5B4239
:1019C80042F0020207930793B8BF049223782E2BA4
:1019D8000CD163782A2B35D1039B02341A1D1B685E
:1019E8000392002BB8BF4FF0FF330593DFF8C8A070
:1019F80003225046217800F0F7F940B14023A0EBCC
:101A08000A0003FA00F0049B01340343049314F81A
:101A1800011B062225488DF8281000F0E5F900285A
:101A280038D0234B1BBB039B073323F00703083332
:101A38000393099B3344099367E70C4601200CFB89
:101A48000232A5E700234FF00A0C1946013405932A
:101A5800204610F8012B303A092A03D9002BC5D0AB
:101A68000591C3E7044601230CFB0121F0E703AB12
:101A780000932A4638460F4B04A9AFF30080421C56
:101A88000646D6D1AB895B063FF52CAF09981DB049
:101A9800BDE8F08F03AB00932A463846054B04A9EE
:101AA80000F07CF8EBE700BFE7210008F12100080F
:101AB800000000000D180008ED2100082DE9F0478E
:101AC800164699468A680B6907469342B8BF13467B
:101AD800336091F843200C46DDF820800AB10133C9
:101AE80033602368990642BF336802333360256840
:101AF80015F0060506D104F1190AE36832689B1A45
:101B0800AB4228DC94F84320131E226818BF012337
:101B180092062DD44946384604F14302C0470130A5
:101B280020D02368E56803F00603042B18BF0025BE
:101B380032684FF00006A36808BFAD1A226908BFD3
:101B480025EAE5759342C4BF9B1AED181A34B542CD
:101B58001AD1002008E00123524649463846C047BA
:101B6800013003D14FF0FF30BDE8F0870135C4E7FD
:101B78003020E11881F843005A1C94F8451022449B
:101B8800023382F84310C5E7012322464946384606
:101B9800C0470130E6D00136D9E700002DE9FF47FC
:101BA8000C46277E9146782F80469A460C9904F178
:101BB800430207D8622F0AD8002F00F0D980582F87
:101BC80000F0A48004F1420684F842703AE0A7F1DC
:101BD8006303152BF6D801A050F823F03D1C00082C
:101BE800511C0008CD1B0008CD1B0008CD1B0008A8
:101BF800CD1B0008511C0008CD1B0008CD1B000898
:101C0800CD1B0008CD1B00085F1D0008811C0008C3
:101C1800411D0008CD1B0008CD1B0008811D0008D0
:101C2800CD1B0008811C0008CD1B0008CD1B000837
:101C3800491D00080B6804F142061A1D1B680A605A
:101C480084F842300123A4E0256808682E0600F1D4
:101C580004030AD505680B60002D03DA2D236D42B5
:101C680084F843300A235E4819E015F0400F0568F0
:101C78000B6018BF2DB2EFE70B682568181D0860C8
:101C8800280601D51D6802E06906FBD51D886F2F5F
:101C98000CBF08230A235248002184F843106668C1
:101CA800002EA8BF2168A660A4BF21F0040121600E
:101CB8000DB9002E4DD01646B5FBF3F103FB1157B5
:101CC800C75D06F8017D2F46BB420D46F4D9082BA7
:101CD8000BD12368DF0708D5236961689942DEBF05
:101CE800302306F8013C06F1FF36921B22614B4671
:101CF80021464046CDF800A003AAFFF7DFFE0130D9
:101D08004CD14FF0FF3004B0BDE8F087344884F878
:101D180045700E68236856F8045B1F060E6014D5DC
:101D2800D90744BF43F0200323601DB9236823F07B
:101D3800200323601023AFE7236843F020032360C8
:101D48007823284884F84530E3E75E0648BFADB2FB
:101D5800E6E71646BBE70B6826681D1D60690D603F
:101D680035061B6801D5186002E07106FBD518809E
:101D7800002316462361BAE70B681A1D0A601E681D
:101D880000213046626800F02FF808B1801B6060BF
:101D980063682361002384F84330A8E73246494644
:101DA80040462369D0470130ABD023689B0713D442
:101DB800E068039B9842B8BF1846A4E7012332465F
:101DC80049464046D04701309BD00135E368039926
:101DD8005B1AAB42F2DCEBE7002504F11906F5E7E4
:101DE800F821000809220008034610B5C9B20244C8
:101DF8009342184601D1002003E0047801338C4255
:101E0800F6D110BD0A44914200F1FF3300D170476A
:101E180010B511F8014B914203F8014FF9D110BDEB
:101E2800884210B501EB020402D98442234607D840
:101E3800431EA14208D011F8012B03F8012FF8E73F
:101E4800014602448A4200D110BD13F8014D02F840
:101E5800014DF7E738B50546002943D051F8043C51
:101E68000C1F002BB8BFE41800F0D0F81E4A136806
:101E7800104633B9636014602846BDE8384000F066
:101E8800CBB8A3420AD921686218934201BF1A68E5
:101E98005B685218226063600460EDE71A465B686D
:101EA8000BB1A342FAD911685018A0420BD120688F
:101EB8000144501883421160DED118685B68014400
:101EC80011605360D8E702D90C232B60D4E720684F
:101ED80021188B4201BF19685B680918216063608B
:101EE8005460C9E738BD00BFC0010020F8B5CD1C5B
:101EF80025F0030508350C2D38BF0C25002D0646A6
:101F080001DBA94203D90C2333600020F8BD00F09F
:101F18007DF821490A6814469CB9204F3B6823B9CB
:101F28002146304600F062F838602946304600F015
:101F38005DF8431C23D10C233046336000F06CF865
:101F4800E3E723685B1B17D40B2B03D923601C44DE
:101F5800256004E06368A2420CBF0B605360304602
:101F680000F05AF804F10B00231D20F00700C21AF4
:101F7800CCD01B1AA350C9E722466468CCE7C41C1E
:101F880024F00304A042E3D0211A304600F02EF8D2
:101F98000130DDD1CFE700BFC0010020C40100201F
:101FA800F8B5074614460E4621B91146BDE8F84073
:101FB800FFF79CBF22B9FFF74DFF25462846F8BD1D
:101FC80000F030F8A0420FD221463846FFF78EFFC6
:101FD80005460028F2D031462246FFF713FF314666
:101FE8003846FFF737FFE9E73546E7E738B5002316
:101FF800054D044608462B60FEF7BCF9431C02D188
:102008002B6803B1236038BDC8010020014800F0E7
:1020180011B800BFD0010020014800F00CB800BF83
:10202800D001002051F8043C181F002BBCBF0B58EE
:10203800C018704770477047537461636B206672AD
:10204800616D653A0A000000205230203D202025AD
:102058003038580A00000000205231203D20202549
:102068003038580A00000000205232203D20202538
:102078003038580A00000000205233203D20202527
:102088003038580A0000000020523132203D202507
:102098003038580A00000000204C52203D202025EE
:1020A8003038580A00000000205043203D202025E9
:1020B8003038580A0000000020505352203D202597
:1020C8003038580A000000004653522F4641523A11
:1020D8000A0000002043465352203D202025303876
:1020E800580A00002048465352203D202025303809
:1020F800580A00002044465352203D2020253038FD
:10210800580A00002041465352203D2020253038EF
:10211800580A0000204D4D464152203D20253038B8
:10212800580A00002042464152203D2020253038E0
:10213800580A00004D6973630A000000204C522FB2
:102148004558435F52455455524E3D202530385826
:102158000A0000005B486172644661756C745D0A30
:10216800000000005B4275734661756C745D0A007F
:102178005B55736167654661756C745D0A000000A4
:102188005553415254312052656365697665642020
:102198005375636365737366756C6C7921200A00E7
:1021A80055534152543220526563656976656420FF
:1021B8005375636365737366756C6C7921200A00C7
:1021C80057656C636F6D652055534152543100005B
:1021D80057656C636F6D6520555341525432002327
:1021E8002D302B2000686C4C00656667454647001B
:1021F8003031323334353637383941424344454635
:1022080000303132333435363738396162636465CA
:0222180066005E
:10221C0078563412900000200000000000000000EE
:10222C0000000000010203040607080900A24A048A
:10223C00240000200000000000000000000000004E
:10224C000000000000000000000000000000000082
:10225C000000000000000000000000000000000072
:10226C000000000000000000000000000000000062
:10227C000000000000000000000000000000000052
:10228C000000000000000000000000000000000042
:08229C000000000032547698A6
:040000050800010DE1
:00000001FF
